:020000000D28C9
:10000800DE00030E8312A9000A08AA005F08AB00ED
:1000180013280E288312AE01AF018301EE288B1C32
:10002800162817285D2803218B108312AC01AD0117
:10003800AB2083122E082007AE002F0803182F0AC2
:100048002107AF001030A800A80B282800000130B5
:100058008312AC070318AD0A0030AD072D08803AAB
:10006800DF0080305F02031D3B280A302C02031C8E
:100078003E283F281C280A308312A0000030A10027
:100088002F08A3002E08A200662083122108AF00C3
:100098002008AE002F08A1002E08A000C32083125C
:1000A80085141030A800A80B57280000831285106B
:1000B800FE2083122B082A088A00290E8300DE0EF0
:1000C8005E0E09008312A501A60120082104031968
:1000D8006E286F28A628A701A70A7D2801300310DB
:1000E800A00DA10DFF3E031D73280130A4002408B4
:1000F800A707A11F80288128722801300310A50DA9
:10010800A60DFF3E031D822821082302031D8E2809
:1001180020082202031C9128922899282008A2026C
:100128002108031CA303A302251401300310A10C0A
:10013800A00CFF3E031D9A280130A702031DA52825
:10014800A62881282608A1002508A00008008312F7
:100158001F08F33908389F009F144230A200A20BF1
:10016800B328000083129F18BA28BB28B6281E0897
:10017800A200A3012208A0002308A10008008312FE
:10018800A201A301CF28000001308312A20703189F
:10019800A30A0030A30721082302031DD52820083D
:1001A8002202031CD828D928C728080083169F01D3
:1001B8009F0183129F010F3099008316990108004F
:1001C80083129F131F139F151F151F1483160516DF
:1001D8009F150800DA20F420F920E420F2280D28E1
:1001E80083168510831285100800831601138B1758
:1001F8000B160800831601138B170B1608008B13B8
:040208000B120800CD
:08400000FF3FFF3FFF3FFF3FC0
:02400E009431EB
:00000001FF
